{
  "_format": "hh-sol-artifact-1",
  "contractName": "Provenance",
  "sourceName": "contracts/Provenance.sol",
  "abi": [
    {
      "inputs": [],
      "stateMutability": "nonpayable",
      "type": "constructor"
    },
    {
      "anonymous": false,
      "inputs": [
        {
          "indexed": true,
          "internalType": "uint256",
          "name": "batchId",
          "type": "uint256"
        },
        {
          "indexed": true,
          "internalType": "address",
          "name": "originator",
          "type": "address"
        },
        {
          "indexed": false,
          "internalType": "string",
          "name": "description",
          "type": "string"
        }
      ],
      "name": "BatchCreated",
      "type": "event"
    },
    {
      "anonymous": false,
      "inputs": [
        {
          "indexed": true,
          "internalType": "uint256",
          "name": "batchId",
          "type": "uint256"
        },
        {
          "indexed": true,
          "internalType": "address",
          "name": "actor",
          "type": "address"
        },
        {
          "indexed": false,
          "internalType": "string",
          "name": "description",
          "type": "string"
        }
      ],
      "name": "EventAdded",
      "type": "event"
    },
    {
      "anonymous": false,
      "inputs": [
        {
          "indexed": true,
          "internalType": "address",
          "name": "previousOwner",
          "type": "address"
        },
        {
          "indexed": true,
          "internalType": "address",
          "name": "newOwner",
          "type": "address"
        }
      ],
      "name": "OwnershipTransferred",
      "type": "event"
    },
    {
      "anonymous": false,
      "inputs": [
        {
          "indexed": true,
          "internalType": "bytes32",
          "name": "role",
          "type": "bytes32"
        },
        {
          "indexed": true,
          "internalType": "address",
          "name": "account",
          "type": "address"
        }
      ],
      "name": "RoleGranted",
      "type": "event"
    },
    {
      "anonymous": false,
      "inputs": [
        {
          "indexed": true,
          "internalType": "bytes32",
          "name": "role",
          "type": "bytes32"
        },
        {
          "indexed": true,
          "internalType": "address",
          "name": "account",
          "type": "address"
        }
      ],
      "name": "RoleRevoked",
      "type": "event"
    },
    {
      "inputs": [],
      "name": "CUSTODIAN_ROLE",
      "outputs": [
        {
          "internalType": "bytes32",
          "name": "",
          "type": "bytes32"
        }
      ],
      "stateMutability": "view",
      "type": "function"
    },
    {
      "inputs": [],
      "name": "ORIGINATOR_ROLE",
      "outputs": [
        {
          "internalType": "bytes32",
          "name": "",
          "type": "bytes32"
        }
      ],
      "stateMutability": "view",
      "type": "function"
    },
    {
      "inputs": [
        {
          "internalType": "uint256",
          "name": "_batchId",
          "type": "uint256"
        },
        {
          "internalType": "string",
          "name": "_description",
          "type": "string"
        },
        {
          "internalType": "string",
          "name": "_location",
          "type": "string"
        }
      ],
      "name": "addEvent",
      "outputs": [],
      "stateMutability": "nonpayable",
      "type": "function"
    },
    {
      "inputs": [
        {
          "internalType": "uint256",
          "name": "",
          "type": "uint256"
        }
      ],
      "name": "batches",
      "outputs": [
        {
          "internalType": "uint256",
          "name": "id",
          "type": "uint256"
        },
        {
          "internalType": "string",
          "name": "description",
          "type": "string"
        },
        {
          "internalType": "address",
          "name": "originator",
          "type": "address"
        },
        {
          "internalType": "uint256",
          "name": "creationTime",
          "type": "uint256"
        }
      ],
      "stateMutability": "view",
      "type": "function"
    },
    {
      "inputs": [
        {
          "internalType": "string",
          "name": "_description",
          "type": "string"
        }
      ],
      "name": "createBatch",
      "outputs": [
        {
          "internalType": "uint256",
          "name": "batchId",
          "type": "uint256"
        }
      ],
      "stateMutability": "nonpayable",
      "type": "function"
    },
    {
      "inputs": [],
      "name": "getBatchCount",
      "outputs": [
        {
          "internalType": "uint256",
          "name": "",
          "type": "uint256"
        }
      ],
      "stateMutability": "view",
      "type": "function"
    },
    {
      "inputs": [
        {
          "internalType": "uint256",
          "name": "_batchId",
          "type": "uint256"
        }
      ],
      "name": "getBatchDetails",
      "outputs": [
        {
          "internalType": "uint256",
          "name": "id",
          "type": "uint256"
        },
        {
          "internalType": "string",
          "name": "description",
          "type": "string"
        },
        {
          "internalType": "address",
          "name": "originator",
          "type": "address"
        },
        {
          "internalType": "uint256",
          "name": "creationTime",
          "type": "uint256"
        }
      ],
      "stateMutability": "view",
      "type": "function"
    },
    {
      "inputs": [
        {
          "internalType": "uint256",
          "name": "_batchId",
          "type": "uint256"
        }
      ],
      "name": "getBatchHistory",
      "outputs": [
        {
          "components": [
            {
              "internalType": "uint256",
              "name": "timestamp",
              "type": "uint256"
            },
            {
              "internalType": "address",
              "name": "actor",
              "type": "address"
            },
            {
              "internalType": "string",
              "name": "description",
              "type": "string"
            },
            {
              "internalType": "string",
              "name": "location",
              "type": "string"
            }
          ],
          "internalType": "struct Provenance.Event[]",
          "name": "",
          "type": "tuple[]"
        }
      ],
      "stateMutability": "view",
      "type": "function"
    },
    {
      "inputs": [
        {
          "internalType": "address",
          "name": "_account",
          "type": "address"
        }
      ],
      "name": "grantCustodianRole",
      "outputs": [],
      "stateMutability": "nonpayable",
      "type": "function"
    },
    {
      "inputs": [
        {
          "internalType": "address",
          "name": "_account",
          "type": "address"
        }
      ],
      "name": "grantOriginatorRole",
      "outputs": [],
      "stateMutability": "nonpayable",
      "type": "function"
    },
    {
      "inputs": [
        {
          "internalType": "bytes32",
          "name": "_role",
          "type": "bytes32"
        },
        {
          "internalType": "address",
          "name": "_account",
          "type": "address"
        }
      ],
      "name": "hasRole",
      "outputs": [
        {
          "internalType": "bool",
          "name": "",
          "type": "bool"
        }
      ],
      "stateMutability": "view",
      "type": "function"
    },
    {
      "inputs": [
        {
          "internalType": "address",
          "name": "",
          "type": "address"
        }
      ],
      "name": "isCustodian",
      "outputs": [
        {
          "internalType": "bool",
          "name": "",
          "type": "bool"
        }
      ],
      "stateMutability": "view",
      "type": "function"
    },
    {
      "inputs": [
        {
          "internalType": "address",
          "name": "",
          "type": "address"
        }
      ],
      "name": "isOriginator",
      "outputs": [
        {
          "internalType": "bool",
          "name": "",
          "type": "bool"
        }
      ],
      "stateMutability": "view",
      "type": "function"
    },
    {
      "inputs": [],
      "name": "owner",
      "outputs": [
        {
          "internalType": "address",
          "name": "",
          "type": "address"
        }
      ],
      "stateMutability": "view",
      "type": "function"
    },
    {
      "inputs": [],
      "name": "renounceOwnership",
      "outputs": [],
      "stateMutability": "nonpayable",
      "type": "function"
    },
    {
      "inputs": [
        {
          "internalType": "address",
          "name": "_account",
          "type": "address"
        }
      ],
      "name": "revokeCustodianRole",
      "outputs": [],
      "stateMutability": "nonpayable",
      "type": "function"
    },
    {
      "inputs": [
        {
          "internalType": "address",
          "name": "_account",
          "type": "address"
        }
      ],
      "name": "revokeOriginatorRole",
      "outputs": [],
      "stateMutability": "nonpayable",
      "type": "function"
    },
    {
      "inputs": [
        {
          "internalType": "address",
          "name": "newOwner",
          "type": "address"
        }
      ],
      "name": "transferOwnership",
      "outputs": [],
      "stateMutability": "nonpayable",
      "type": "function"
    }
  ],
  "bytecode": "0x60806040523480156200001157600080fd5b5062000032620000266200003860201b60201c565b6200004060201b60201c565b62000104565b600033905090565b60008060009054906101000a900473ffffffffffffffffffffffffffffffffffffffff169050816000806101000a81548173ffffffffffffffffffffffffffffffffffffffff021916908373ffffffffffffffffffffffffffffffffffffffff1602179055508173ffffffffffffffffffffffffffffffffffffffff168173ffffffffffffffffffffffffffffffffffffffff167f8be0079c531659141344cd1fd0a4f28419497f9722a3daafe3b4186f6b6457e060405160405180910390a35050565b6129b080620001146000396000f3fe608060405234801561001057600080fd5b50600436106101165760003560e01c80639d47dcc0116100a2578063c79445d011610071578063c79445d0146102e5578063c7a8ccb114610303578063ca8a5e1214610333578063e73db10f1461034f578063f2fde38b1461037f57610116565b80639d47dcc014610243578063a125142b14610276578063a8fabfa514610294578063b32c4d8d146102b257610116565b8063715018a6116100e9578063715018a61461019f5780637b87260d146101a95780638da5cb5b146101c557806391d14854146101e357806392f82abd1461021357610116565b80631e5e7d5a1461011b57806333fe7b231461013757806335c80c8c146101535780634959867f14610183575b600080fd5b61013560048036038101906101309190611881565b61039b565b005b610151600480360381019061014c9190611881565b6104ee565b005b61016d60048036038101906101689190611881565b6106b1565b60405161017a91906118c9565b60405180910390f35b61019d60048036038101906101989190611881565b6106d1565b005b6101a7610824565b005b6101c360048036038101906101be919061197f565b610838565b005b6101cd610b32565b6040516101da9190611a23565b60405180910390f35b6101fd60048036038101906101f89190611a74565b610b5b565b60405161020a91906118c9565b60405180910390f35b61022d60048036038101906102289190611ab4565b610c5e565b60405161023a9190611b10565b60405180910390f35b61025d60048036038101906102589190611b2b565b610f94565b60405161026d9493929190611be8565b60405180910390f35b61027e6110ce565b60405161028b9190611c43565b60405180910390f35b61029c6110f2565b6040516102a99190611b10565b60405180910390f35b6102cc60048036038101906102c79190611b2b565b611103565b6040516102dc9493929190611be8565b60405180910390f35b6102ed6111db565b6040516102fa9190611c43565b60405180910390f35b61031d60048036038101906103189190611b2b565b6111ff565b60405161032a9190611df2565b60405180910390f35b61034d60048036038101906103489190611881565b611445565b005b61036960048036038101906103649190611881565b611608565b60405161037691906118c9565b60405180910390f35b61039960048036038101906103949190611881565b611628565b005b6103a36116ab565b600460008273ffffffffffffffffffffffffffffffffffffffff1673ffffffffffffffffffffffffffffffffffffffff16815260200190815260200160002060009054906101000a900460ff1661042f576040517f08c379a000000000000000000000000000000000000000000000000000000000815260040161042690611e86565b60405180910390fd5b6000600460008373ffffffffffffffffffffffffffffffffffffffff1673ffffffffffffffffffffffffffffffffffffffff16815260200190815260200160002060006101000a81548160ff0219169083151502179055508073ffffffffffffffffffffffffffffffffffffffff167fe28434228950b641dbbc0178de89daa359a87c6ee0d8399aeace52a98fe902b97f155aaafb6329a2098580462df33ec4b7441b19729b9601c5fc17ae1cf99a8a5260405160405180910390a350565b6104f66116ab565b600073ffffffffffffffffffffffffffffffffffffffff168173ffffffffffffffffffffffffffffffffffffffff1603610565576040517f08c379a000000000000000000000000000000000000000000000000000000000815260040161055c90611f18565b60405180910390fd5b600360008273ffffffffffffffffffffffffffffffffffffffff1673ffffffffffffffffffffffffffffffffffffffff16815260200190815260200160002060009054906101000a900460ff16156105f2576040517f08c379a00000000000000000000000000000000000000000000000000000000081526004016105e990611faa565b60405180910390fd5b6001600360008373ffffffffffffffffffffffffffffffffffffffff1673ffffffffffffffffffffffffffffffffffffffff16815260200190815260200160002060006101000a81548160ff0219169083151502179055508073ffffffffffffffffffffffffffffffffffffffff167f59abfac6520ec36a6556b2a4dd949cc40007459bcd5cd2507f1e5cc77b6bc97e7f2ae6a113c0ed5b78a53413ffbb7679881f11145ccfba4fb92e863dfcd5a1d2f360405160405180910390a350565b60046020528060005260406000206000915054906101000a900460ff1681565b6106d96116ab565b600360008273ffffffffffffffffffffffffffffffffffffffff1673ffffffffffffffffffffffffffffffffffffffff16815260200190815260200160002060009054906101000a900460ff16610765576040517f08c379a000000000000000000000000000000000000000000000000000000000815260040161075c9061203c565b60405180910390fd5b6000600360008373ffffffffffffffffffffffffffffffffffffffff1673ffffffffffffffffffffffffffffffffffffffff16815260200190815260200160002060006101000a81548160ff0219169083151502179055508073ffffffffffffffffffffffffffffffffffffffff167f59abfac6520ec36a6556b2a4dd949cc40007459bcd5cd2507f1e5cc77b6bc97e7f155aaafb6329a2098580462df33ec4b7441b19729b9601c5fc17ae1cf99a8a5260405160405180910390a350565b61082c6116ab565b6108366000611729565b565b600460003373ffffffffffffffffffffffffffffffffffffffff1673ffffffffffffffffffffffffffffffffffffffff16815260200190815260200160002060009054906101000a900460ff166108c4576040517f08c379a00000000000000000000000000000000000000000000000000000000081526004016108bb906120ce565b60405180910390fd5b846108cf60016117ed565b8110610910576040517f08c379a000000000000000000000000000000000000000000000000000000000815260040161090790612160565b60405180910390fd5b60008585905011610956576040517f08c379a000000000000000000000000000000000000000000000000000000000815260040161094d906121f2565b60405180910390fd5b60006002600088815260200190815260200160002090508060040160405180608001604052804281526020013373ffffffffffffffffffffffffffffffffffffffff16815260200188888080601f016020809104026020016040519081016040528093929190818152602001838380828437600081840152601f19601f82011690508083019250505050505050815260200186868080601f016020809104026020016040519081016040528093929190818152602001838380828437600081840152601f19601f8201169050808301925050505050505081525090806001815401808255809150506001900390600052602060002090600402016000909190919091506000820151816000015560208201518160010160006101000a81548173ffffffffffffffffffffffffffffffffffffffff021916908373ffffffffffffffffffffffffffffffffffffffff1602179055506040820151816002019081610abf919061244d565b506060820151816003019081610ad5919061244d565b5050503373ffffffffffffffffffffffffffffffffffffffff16877fbbb87fefecd82902af03e5ddbaf086b9477e3bdb2be5568f5b6ee54c0cecfe5e8888604051610b2192919061255b565b60405180910390a350505050505050565b60008060009054906101000a900473ffffffffffffffffffffffffffffffffffffffff16905090565b60007f59abfac6520ec36a6556b2a4dd949cc40007459bcd5cd2507f1e5cc77b6bc97e8303610bd857600360008373ffffffffffffffffffffffffffffffffffffffff1673ffffffffffffffffffffffffffffffffffffffff16815260200190815260200160002060009054906101000a900460ff169050610c58565b7fe28434228950b641dbbc0178de89daa359a87c6ee0d8399aeace52a98fe902b98303610c5357600460008373ffffffffffffffffffffffffffffffffffffffff1673ffffffffffffffffffffffffffffffffffffffff16815260200190815260200160002060009054906101000a900460ff169050610c58565b600090505b92915050565b6000600360003373ffffffffffffffffffffffffffffffffffffffff1673ffffffffffffffffffffffffffffffffffffffff16815260200190815260200160002060009054906101000a900460ff16610cec576040517f08c379a0000000000000000000000000000000000000000000000000000000008152600401610ce3906125f1565b60405180910390fd5b60008383905011610d32576040517f08c379a0000000000000000000000000000000000000000000000000000000008152600401610d2990612683565b60405180910390fd5b610d3c60016117ed565b905060006002600083815260200190815260200160002090508181600001819055508383826001019182610d719291906126ae565b50338160020160006101000a81548173ffffffffffffffffffffffffffffffffffffffff021916908373ffffffffffffffffffffffffffffffffffffffff1602179055504281600301819055508060040160405180608001604052804281526020013373ffffffffffffffffffffffffffffffffffffffff1681526020016040518060400160405280600d81526020017f426174636820437265617465640000000000000000000000000000000000000081525081526020016040518060200160405280600081525081525090806001815401808255809150506001900390600052602060002090600402016000909190919091506000820151816000015560208201518160010160006101000a81548173ffffffffffffffffffffffffffffffffffffffff021916908373ffffffffffffffffffffffffffffffffffffffff1602179055506040820151816002019081610ecc919061244d565b506060820151816003019081610ee2919061244d565b505050610eef60016117fb565b3373ffffffffffffffffffffffffffffffffffffffff16827f455fe5771863ad206137a00ecd2103bf528ba811090f3610fb2045972787ea448686604051610f3892919061255b565b60405180910390a33373ffffffffffffffffffffffffffffffffffffffff16827fbbb87fefecd82902af03e5ddbaf086b9477e3bdb2be5568f5b6ee54c0cecfe5e604051610f85906127ca565b60405180910390a35092915050565b6000606060008084610fa660016117ed565b8110610fe7576040517f08c379a0000000000000000000000000000000000000000000000000000000008152600401610fde90612160565b60405180910390fd5b60006002600088815260200190815260200160002090508060000154816001018260020160009054906101000a900473ffffffffffffffffffffffffffffffffffffffff16836003015482805461103d90612270565b80601f016020809104026020016040519081016040528092919081815260200182805461106990612270565b80156110b65780601f1061108b576101008083540402835291602001916110b6565b820191906000526020600020905b81548152906001019060200180831161109957829003601f168201915b50505050509250955095509550955050509193509193565b7f59abfac6520ec36a6556b2a4dd949cc40007459bcd5cd2507f1e5cc77b6bc97e81565b60006110fe60016117ed565b905090565b600260205280600052604060002060009150905080600001549080600101805461112c90612270565b80601f016020809104026020016040519081016040528092919081815260200182805461115890612270565b80156111a55780601f1061117a576101008083540402835291602001916111a5565b820191906000526020600020905b81548152906001019060200180831161118857829003601f168201915b5050505050908060020160009054906101000a900473ffffffffffffffffffffffffffffffffffffffff16908060030154905084565b7fe28434228950b641dbbc0178de89daa359a87c6ee0d8399aeace52a98fe902b981565b60608161120c60016117ed565b811061124d576040517f08c379a000000000000000000000000000000000000000000000000000000000815260040161124490612160565b60405180910390fd5b60026000848152602001908152602001600020600401805480602002602001604051908101604052809291908181526020016000905b828210156114395783829060005260206000209060040201604051806080016040529081600082015481526020016001820160009054906101000a900473ffffffffffffffffffffffffffffffffffffffff1673ffffffffffffffffffffffffffffffffffffffff1673ffffffffffffffffffffffffffffffffffffffff16815260200160028201805461131690612270565b80601f016020809104026020016040519081016040528092919081815260200182805461134290612270565b801561138f5780601f106113645761010080835404028352916020019161138f565b820191906000526020600020905b81548152906001019060200180831161137257829003601f168201915b505050505081526020016003820180546113a890612270565b80601f01602080910402602001604051908101604052809291908181526020018280546113d490612270565b80156114215780601f106113f657610100808354040283529160200191611421565b820191906000526020600020905b81548152906001019060200180831161140457829003601f168201915b50505050508152505081526020019060010190611283565b50505050915050919050565b61144d6116ab565b600073ffffffffffffffffffffffffffffffffffffffff168173ffffffffffffffffffffffffffffffffffffffff16036114bc576040517f08c379a00000000000000000000000000000000000000000000000000000000081526004016114b390611f18565b60405180910390fd5b600460008273ffffffffffffffffffffffffffffffffffffffff1673ffffffffffffffffffffffffffffffffffffffff16815260200190815260200160002060009054906101000a900460ff1615611549576040517f08c379a00000000000000000000000000000000000000000000000000000000081526004016115409061285c565b60405180910390fd5b6001600460008373ffffffffffffffffffffffffffffffffffffffff1673ffffffffffffffffffffffffffffffffffffffff16815260200190815260200160002060006101000a81548160ff0219169083151502179055508073ffffffffffffffffffffffffffffffffffffffff167fe28434228950b641dbbc0178de89daa359a87c6ee0d8399aeace52a98fe902b97f2ae6a113c0ed5b78a53413ffbb7679881f11145ccfba4fb92e863dfcd5a1d2f360405160405180910390a350565b60036020528060005260406000206000915054906101000a900460ff1681565b6116306116ab565b600073ffffffffffffffffffffffffffffffffffffffff168173ffffffffffffffffffffffffffffffffffffffff160361169f576040517f08c379a0000000000000000000000000000000000000000000000000000000008152600401611696906128ee565b60405180910390fd5b6116a881611729565b50565b6116b3611811565b73ffffffffffffffffffffffffffffffffffffffff166116d1610b32565b73ffffffffffffffffffffffffffffffffffffffff1614611727576040517f08c379a000000000000000000000000000000000000000000000000000000000815260040161171e9061295a565b60405180910390fd5b565b60008060009054906101000a900473ffffffffffffffffffffffffffffffffffffffff169050816000806101000a81548173ffffffffffffffffffffffffffffffffffffffff021916908373ffffffffffffffffffffffffffffffffffffffff1602179055508173ffffffffffffffffffffffffffffffffffffffff168173ffffffffffffffffffffffffffffffffffffffff167f8be0079c531659141344cd1fd0a4f28419497f9722a3daafe3b4186f6b6457e060405160405180910390a35050565b600081600001549050919050565b6001816000016000828254019250508190555050565b600033905090565b600080fd5b600080fd5b600073ffffffffffffffffffffffffffffffffffffffff82169050919050565b600061184e82611823565b9050919050565b61185e81611843565b811461186957600080fd5b50565b60008135905061187b81611855565b92915050565b60006020828403121561189757611896611819565b5b60006118a58482850161186c565b91505092915050565b60008115159050919050565b6118c3816118ae565b82525050565b60006020820190506118de60008301846118ba565b92915050565b6000819050919050565b6118f7816118e4565b811461190257600080fd5b50565b600081359050611914816118ee565b92915050565b600080fd5b600080fd5b600080fd5b60008083601f84011261193f5761193e61191a565b5b8235905067ffffffffffffffff81111561195c5761195b61191f565b5b60208301915083600182028301111561197857611977611924565b5b9250929050565b60008060008060006060868803121561199b5761199a611819565b5b60006119a988828901611905565b955050602086013567ffffffffffffffff8111156119ca576119c961181e565b5b6119d688828901611929565b9450945050604086013567ffffffffffffffff8111156119f9576119f861181e565b5b611a0588828901611929565b92509250509295509295909350565b611a1d81611843565b82525050565b6000602082019050611a386000830184611a14565b92915050565b6000819050919050565b611a5181611a3e565b8114611a5c57600080fd5b50565b600081359050611a6e81611a48565b92915050565b60008060408385031215611a8b57611a8a611819565b5b6000611a9985828601611a5f565b9250506020611aaa8582860161186c565b9150509250929050565b60008060208385031215611acb57611aca611819565b5b600083013567ffffffffffffffff811115611ae957611ae861181e565b5b611af585828601611929565b92509250509250929050565b611b0a816118e4565b82525050565b6000602082019050611b256000830184611b01565b92915050565b600060208284031215611b4157611b40611819565b5b6000611b4f84828501611905565b91505092915050565b600081519050919050565b600082825260208201905092915050565b60005b83811015611b92578082015181840152602081019050611b77565b60008484015250505050565b6000601f19601f8301169050919050565b6000611bba82611b58565b611bc48185611b63565b9350611bd4818560208601611b74565b611bdd81611b9e565b840191505092915050565b6000608082019050611bfd6000830187611b01565b8181036020830152611c0f8186611baf565b9050611c1e6040830185611a14565b611c2b6060830184611b01565b95945050505050565b611c3d81611a3e565b82525050565b6000602082019050611c586000830184611c34565b92915050565b600081519050919050565b600082825260208201905092915050565b6000819050602082019050919050565b611c93816118e4565b82525050565b611ca281611843565b82525050565b600082825260208201905092915050565b6000611cc482611b58565b611cce8185611ca8565b9350611cde818560208601611b74565b611ce781611b9e565b840191505092915050565b6000608083016000830151611d0a6000860182611c8a565b506020830151611d1d6020860182611c99565b5060408301518482036040860152611d358282611cb9565b91505060608301518482036060860152611d4f8282611cb9565b9150508091505092915050565b6000611d688383611cf2565b905092915050565b6000602082019050919050565b6000611d8882611c5e565b611d928185611c69565b935083602082028501611da485611c7a565b8060005b85811015611de05784840389528151611dc18582611d5c565b9450611dcc83611d70565b925060208a01995050600181019050611da8565b50829750879550505050505092915050565b60006020820190508181036000830152611e0c8184611d7d565b905092915050565b7f50726f76656e616e63653a204163636f756e7420646f6573206e6f742068617660008201527f6520437573746f6469616e20726f6c6500000000000000000000000000000000602082015250565b6000611e70603083611b63565b9150611e7b82611e14565b604082019050919050565b60006020820190508181036000830152611e9f81611e63565b9050919050565b7f50726f76656e616e63653a20416464726573732063616e6e6f74206265207a6560008201527f726f000000000000000000000000000000000000000000000000000000000000602082015250565b6000611f02602283611b63565b9150611f0d82611ea6565b604082019050919050565b60006020820190508181036000830152611f3181611ef5565b9050919050565b7f50726f76656e616e63653a204163636f756e7420616c7265616479206861732060008201527f4f726967696e61746f7220726f6c650000000000000000000000000000000000602082015250565b6000611f94602f83611b63565b9150611f9f82611f38565b604082019050919050565b60006020820190508181036000830152611fc381611f87565b9050919050565b7f50726f76656e616e63653a204163636f756e7420646f6573206e6f742068617660008201527f65204f726967696e61746f7220726f6c65000000000000000000000000000000602082015250565b6000612026603183611b63565b915061203182611fca565b604082019050919050565b6000602082019050818103600083015261205581612019565b9050919050565b7f50726f76656e616e63653a2043616c6c6572206973206e6f742061204375737460008201527f6f6469616e000000000000000000000000000000000000000000000000000000602082015250565b60006120b8602583611b63565b91506120c38261205c565b604082019050919050565b600060208201905081810360008301526120e7816120ab565b9050919050565b7f50726f76656e616e63653a20426174636820494420646f6573206e6f7420657860008201527f6973740000000000000000000000000000000000000000000000000000000000602082015250565b600061214a602383611b63565b9150612155826120ee565b604082019050919050565b600060208201905081810360008301526121798161213d565b9050919050565b7f50726f76656e616e63653a204576656e74206465736372697074696f6e20636160008201527f6e6e6f7420626520656d70747900000000000000000000000000000000000000602082015250565b60006121dc602d83611b63565b91506121e782612180565b604082019050919050565b6000602082019050818103600083015261220b816121cf565b9050919050565b7f4e487b7100000000000000000000000000000000000000000000000000000000600052604160045260246000fd5b7f4e487b7100000000000000000000000000000000000000000000000000000000600052602260045260246000fd5b6000600282049050600182168061228857607f821691505b60208210810361229b5761229a612241565b5b50919050565b60008190508160005260206000209050919050565b60006020601f8301049050919050565b600082821b905092915050565b6000600883026123037fffffffffffffffffffffffffffffffffffffffffffffffffffffffffffffffff826122c6565b61230d86836122c6565b95508019841693508086168417925050509392505050565b6000819050919050565b600061234a612345612340846118e4565b612325565b6118e4565b9050919050565b6000819050919050565b6123648361232f565b61237861237082612351565b8484546122d3565b825550505050565b600090565b61238d612380565b61239881848461235b565b505050565b5b818110156123bc576123b1600082612385565b60018101905061239e565b5050565b601f821115612401576123d2816122a1565b6123db846122b6565b810160208510156123ea578190505b6123fe6123f6856122b6565b83018261239d565b50505b505050565b600082821c905092915050565b600061242460001984600802612406565b1980831691505092915050565b600061243d8383612413565b9150826002028217905092915050565b61245682611b58565b67ffffffffffffffff81111561246f5761246e612212565b5b6124798254612270565b6124848282856123c0565b600060209050601f8311600181146124b757600084156124a5578287015190505b6124af8582612431565b865550612517565b601f1984166124c5866122a1565b60005b828110156124ed578489015182556001820191506020850194506020810190506124c8565b8683101561250a5784890151612506601f891682612413565b8355505b6001600288020188555050505b505050505050565b82818337600083830152505050565b600061253a8385611b63565b935061254783858461251f565b61255083611b9e565b840190509392505050565b6000602082019050818103600083015261257681848661252e565b90509392505050565b7f50726f76656e616e63653a2043616c6c6572206973206e6f7420616e204f726960008201527f67696e61746f7200000000000000000000000000000000000000000000000000602082015250565b60006125db602783611b63565b91506125e68261257f565b604082019050919050565b6000602082019050818103600083015261260a816125ce565b9050919050565b7f50726f76656e616e63653a204465736372697074696f6e2063616e6e6f74206260008201527f6520656d70747900000000000000000000000000000000000000000000000000602082015250565b600061266d602783611b63565b915061267882612611565b604082019050919050565b6000602082019050818103600083015261269c81612660565b9050919050565b600082905092915050565b6126b883836126a3565b67ffffffffffffffff8111156126d1576126d0612212565b5b6126db8254612270565b6126e68282856123c0565b6000601f8311600181146127155760008415612703578287013590505b61270d8582612431565b865550612775565b601f198416612723866122a1565b60005b8281101561274b57848901358255600182019150602085019450602081019050612726565b868310156127685784890135612764601f891682612413565b8355505b6001600288020188555050505b50505050505050565b7f4261746368204372656174656400000000000000000000000000000000000000600082015250565b60006127b4600d83611b63565b91506127bf8261277e565b602082019050919050565b600060208201905081810360008301526127e3816127a7565b9050919050565b7f50726f76656e616e63653a204163636f756e7420616c7265616479206861732060008201527f437573746f6469616e20726f6c65000000000000000000000000000000000000602082015250565b6000612846602e83611b63565b9150612851826127ea565b604082019050919050565b6000602082019050818103600083015261287581612839565b9050919050565b7f4f776e61626c653a206e6577206f776e657220697320746865207a65726f206160008201527f6464726573730000000000000000000000000000000000000000000000000000602082015250565b60006128d8602683611b63565b91506128e38261287c565b604082019050919050565b60006020820190508181036000830152612907816128cb565b9050919050565b7f4f776e61626c653a2063616c6c6572206973206e6f7420746865206f776e6572600082015250565b6000612944602083611b63565b915061294f8261290e565b602082019050919050565b6000602082019050818103600083015261297381612937565b905091905056fea264697066735822122064023fb242ee11ebceccd7bdf5a68610f66ec9cb29b4f2e056f88a1dad94508264736f6c63430008140033",
  "linkReferences": {},
  "deployedLinkReferences": {}
}